:100000000C94A1000C94CB010C94BE000C94BE0087
:100010000C94BE000C94BE000C94BE000C94BE0068
:100020000C94BE000C94BE000C94BE000C94BE0058
:100030000C94BE000C94BE000C94BE000C94BE0048
:100040000C94BE000C94BE000C94BE000C94BE0038
:100050000C94BE000C94BE000C94BE000C94BE0028
:100060000C94BE000C94BE000C94BE000C94BE0018
:100070000C94BE000C94BE000C94BE000C94BE0008
:100080000C94BE000C94BE000C94BE000C94BE00F8
:100090000C94BE000C94BE000C94BE000C94BE00E8
:1000A0000C94BE000C94BE000C94BE000C94BE00D8
:1000B0000C94BE000C94BE000C94BE000C94BE00C8
:1000C0000C94BE000C94BE000C94BE000C94BE00B8
:1000D0000C94BE000C94BE000C94BE000C94BE00A8
:1000E0000C94BE0004030904240377006F0072001F
:1000F0006B0069006E00700072006F006700720094
:100100006500730073002E00630061001203680035
:10011000650061007600790062006F0078001201CE
:10012000100100000008C016DC05000101020001FA
:1001300009021200010100806409040000000000AF
:10014000000011241FBECFEFD1E2DEBFCDBF12E011
:10015000A0E0B2E0E0E4F7E002C005900D92A43028
:10016000B107D9F712E0A4E0B2E001C01D92AF33AD
:10017000B107E1F70E9444030C949E030C94000025
:100180001F93CF93DF9380912202835087FD84C019
:1001900090911F0220911E022D3209F07BC0883001
:1001A00009F078C0CCE0D0E0C91BD109CA5DDD4FB1
:1001B00083EC809312028AE580930002109204027D
:1001C0008881807621F0CE010E9436035AC09A8140
:1001D00010921B028981882331F410921C022BE1BA
:1001E00032E082E04AC0853019F4909323023BC08C
:1001F000863081F58B81813019F48EE191E01FC04A
:10020000823019F480E391E01AC08330F1F499232D
:1002100041F484EE90E0909321028093200284E0E8
:1002200015C0913041F488EE90E0909321028093C4
:10023000200284E20BC0923041F48CE091E0909374
:1002400021028093200282E101C080E090E490933B
:10025000040217C0883059F0893019F490932502B0
:1002600002C08A3039F02BE132E080E006C025E29E
:1002700032E002C02BE132E081E030932102209392
:1002800020029F81992321F49E81981708F4892FD9
:1002900080930102109222028091000284FF4DC0DF
:1002A000809101028F3F09F448C0182F893008F06F
:1002B00018E0811B809301028091120298E889273F
:1002C00080931202112361F180912002909121020A
:1002D00030910402212F215036FF0EC030E0A901D9
:1002E0004C5E5D4FFC01A3E1B2E064916D933196E9
:1002F000A417B507D1F70CC0DC0130E0A9014C5EB2
:100300005D4FE3E1F2E06D916193E417F507D9F7F2
:100310002F5F3F4F280F391F309321022093200277
:1003200083E192E0612F0E94C7011C5F1C3019F02D
:100330008FEF809301021093000284E199B19370D2
:1003400031F48150D9F71092230210921D02DF91EF
:10035000CF911F910895E9E6F0E08081826080836B
:10036000E89A0895A82FB92F80E090E041E050EA84
:10037000609530E009C02D9182279795879510F000
:1003800084279527305EC8F36F5FA8F30895EADFEE
:100390008D939D930895CF93CFB7CF93DF93C3955C
:1003A000499BE9F7499B0BC0499B09C0499B07C082
:1003B000499B05C0499B03C0499B01C089C06F93FD
:1003C000C0911F02DD27CA5DDD4F2F9365E5499B74
:1003D00003C02F916F91E6CF0F931F934F9320E0AF
:1003E00040E15F9309B1037001FB27F93F9350E0AF
:1003F0003BE039C0137040642F77012F5F5F1EC050
:10040000406819B113702F7752501FC0406409B172
:100410002F770370D1F15F5F00C023C0406219B134
:100420002F77137091F15F5F00C025C00370102714
:10043000515012F45D5F0000115027952C3F19B107
:10044000C8F613700127015027952C3FC8F64227A4
:10045000499309B1037010274F73115027952C3F12
:10046000A8F64695469519B1137079F00127015009
:1004700027952C3F98F66B5A60F3315009B1B0F6CE
:1004800000C011E01CBB002717C03B503195C31BB7
:10049000D04011E01CBB0881033CF9F00B34E9F0BB
:1004A00020911D021981110F1213EDCF093651F160
:1004B0000D3211F0013E39F7009324023F915F9114
:1004C0004F911F910F912F916F91CCB3C0FD67CFCA
:1004D000DF91CF91CFBFCF91189520912402222395
:1004E00069F310912202112339F534303AF1309337
:1004F000220220931E0210911F023BE0311B309319
:100500001F021CC0009122020130B4F40AE53091B0
:10051000000234FD14C000930002C2E1D2E013C017
:10052000052710E000C000000BB91AC0052710E035
:10053000221F1DC010E021C04AE502C032ED432F4A
:10054000C4E1D0E032E01AB11360599A0BB11AB984
:1005500053E020E865E320FF05270BB927951795A1
:100560001C3FF0F66695B8F7B1F720FF05270BB9E9
:10057000279517951C3FD0F62795179517FF052748
:1005800000001C3F0BB9B0F629913A9519F70C7F82
:1005900010912302110FC651D0400BB911F01093E6
:1005A0001D0211E01CBB02601AB11C7F402F4C7F62
:1005B00054E05A95F1F70BB91AB94BB97FCF4830CF
:1005C00050F090917B00986090937B004850462BB0
:1005D00040937C0008C090917B00977F90937B00B4
:1005E000642B60937C00806C80937A0085E88A9508
:1005F000F1F7000080917A0084FFFCCF2091780011
:1006000030917900932F80E030E0282B392BC901FD
:10061000089530933E0220933D0240933C02609344
:100620007C00EBE7F0E09081977F9083886C80936B
:100630007A00089510927A000895EEE6F0E0808145
:100640008E7F8083F89454985C98EAE7F0E080818C
:10065000877F808380818F77808312B815B818B820
:10066000E0910202F09103020995089525E032E03D
:100670003093210220932002FC018181882311F410
:100680008DE0089580E00895CF93DF938CEF8BB9D0
:100690001AB854985C98549A5C9A10BA11BA10928D
:1006A00007011092080117B88FEF88B91092040162
:1006B0008093050111B882B9569A579A5E985F984F
:1006C0000E94AB0178940E94C000C0E0D0E084E0BA
:1006D00060E44C2F0E94DF02209729F490930502DA
:1006E000809306021CC0C130D10529F49093070203
:1006F0008093080214C0C230D10529F490930902F6
:1007000080930A020CC0C330D10529F490930B02E8
:1007100080930C0204C090930D0280930E022196E8
:10072000C530D105A1F686B180930F0280910301F7
:100730008093100280B180931102C5CFF894FFCF4F
:040740005AFF0070EC
:00000001FF
