:100000000C94A0000C94C6010C94BD000C94BD008F
:100010000C94BD000C94BD000C94BD000C94BD006C
:100020000C94BD000C94BD000C94BD000C94BD005C
:100030000C94BD000C94BD000C94BD000C94BD004C
:100040000C94BD000C94BD000C94BD000C94BD003C
:100050000C94BD000C94BD000C94BD000C94BD002C
:100060000C94BD000C94BD000C94BD000C94BD001C
:100070000C94BD000C94BD000C94BD000C94BD000C
:100080000C94BD000C94BD000C94BD000C94BD00FC
:100090000C94BD000C94BD000C94BD000C94BD00EC
:1000A0000C94BD000C94BD000C94BD000C94BD00DC
:1000B0000C94BD000C94BD000C94BD000C94BD00CC
:1000C0000C94BD000C94BD000C94BD000C94BD00BC
:1000D0000C94BD000C94BD000C94BD000C94BD00AC
:1000E0000C94BD00090212000101008064090400A3
:1000F0000000000000001201100100000008C016FE
:10010000DC05000101020001100345004400550018
:10011000420045004100540024036F007200620059
:100120006900740061006C0072006F0062006F0073
:10013000740073002E0063006F006D000403090457
:1001400011241FBECFEFD1E2DEBFCDBF12E0A0E091
:10015000B2E0E4E9F7E002C005900D92A430B107E7
:10016000D9F712E0A4E0B2E001C01D92AC33B107B0
:10017000E1F70E9441030C94C8030C940000CF9354
:10018000DF9380911F02835087FD88C090911C02ED
:1001900020911B022D3209F07FC0883009F07CC00D
:1001A000CCE0D0E0C91BD109CD5DDD4F83EC80935D
:1001B0000F028AE580930002109204028881807603
:1001C00021F0CE010E9433035EC09A811092180282
:1001D0008981811106C01092190228E132E082E083
:1001E0004EC0853019F4909320023DC08630A9F5A9
:1001F0008B81813019F486EF90E004C0823041F4A5
:1002000084EE90E090931E0280931D0282E121C053
:100210008330F1F4911108C08CE391E090931E02B9
:1002200080931D0284E015C0913041F488E191E093
:1002300090931E0280931D0284E20BC0923041F421
:1002400088E091E090931E0280931D0280E101C03E
:1002500080E090E49093040216C0883069F0893001
:1002600029F49093220228E132E004C028E132E030
:100270008A3021F080E003C022E232E081E0309356
:100280001E0220931D029F81911104C09E81981728
:1002900008F4892F8093010210921F0280910002BE
:1002A00084FF47C0809101028F3F09F442C0C82FEC
:1002B000893008F0C8E08C1B8093010280910F0206
:1002C00098E8892780930F02CC2331F120911D02F9
:1002D00030911E028091040286FF0BC0F901A0E15B
:1002E000B2E08C2F8A0F94919D9331968A13FBCFA5
:1002F00009C0D901E0E1F2E08C2F8E0F9D9191931E
:100300008E13FCCF8C2F815090E00196820F931FAB
:1003100090931E0280931D026C2F80E192E00E9458
:10032000C201CC5FCC3019F08FEF80930102C093F3
:10033000000284E199B1937031F48150D9F71092A1
:10034000200210921A02DF91CF910895E9E6F0E0C1
:10035000808182608083E89A0895A82FB92F80E079
:1003600090E041E050EA609530E009C02D9182278D
:100370009795879510F084279527305EC8F36F5FB7
:10038000A8F30895EADF8D939D930895CF93CFB797
:10039000CF93DF93C395499BE9F7499B0BC0499BDA
:1003A00009C0499B07C0499B05C0499B03C0499BA5
:1003B00001C089C06F93C0911C02DD27CD5DDD4F68
:1003C0002F9365E5499B03C02F916F91E6CF0F9363
:1003D0001F934F9320E040E15F9309B1037001FB4D
:1003E00027F93F9350E03BE039C0137040642F770A
:1003F000012F5F5F1EC0406819B113702F775250F4
:100400001FC0406409B12F770370D1F15F5F00C056
:1004100023C0406219B12F77137091F15F5F00C064
:1004200025C003701027515012F45D5F0000115079
:1004300027952C3F19B1C8F6137001270150279555
:100440002C3FC8F64227499309B1037010274F7318
:10045000115027952C3FA8F64695469519B1137073
:1004600079F00127015027952C3F98F66B5A60F3DD
:10047000315009B1B0F600C011E01CBB002717C015
:100480003B503195C31BD04011E01CBB0881033C9D
:10049000F9F00B34E9F020911A021981110F1213AF
:1004A000EDCF093651F10D3211F0013E39F70093CD
:1004B00021023F915F914F911F910F912F916F9169
:1004C000CCB3C0FD67CFDF91CF91CFBFCF9118954F
:1004D00020912102222369F310911F02112339F583
:1004E00034303AF130931F0220931B0210911C020A
:1004F0003BE0311B30931C021CC000911F020130F5
:10050000B4F40AE53091000234FD14C000930002F7
:10051000CFE0D2E013C0052710E000C000000BB907
:100520001AC0052710E0221F1DC010E021C04AE5B7
:1005300002C032ED432FC4E1D0E032E01AB11360C3
:10054000599A0BB11AB953E020E865E320FF05275B
:100550000BB9279517951C3FF0F66695B8F7B1F7DC
:1005600020FF05270BB9279517951C3FD0F6279537
:10057000179517FF052700001C3F0BB9B0F629910E
:100580003A9519F70C7F10912002110FC651D040F7
:100590000BB911F010931A0211E01CBB02601AB1E2
:1005A0001C7F402F4C7F54E05A95F1F70BB91AB9D4
:1005B0004BB97FCF90917B00483028F098609093A2
:1005C0007B00485003C0977F90937B00462B40935D
:1005D0007C00806C80937A0045E84A95F1F7000032
:1005E00080917A0084FFFCCF2091780030917900CF
:1005F000932F80E0AC01422B9A01C90108953093FA
:100600003B0220933A024093390260937C00EBE76F
:10061000F0E09081977F9083886C80937A000895B2
:1006200010927A000895EEE6F0E080818E7F80835C
:10063000F89488E10FB6F8948093600010926000FF
:100640000FBE54985C98EAE7F0E08081877F808352
:1006500080818F77808312B815B818B8E0910202B4
:10066000F0910302099425E032E030931E022093BA
:100670001D02FC018181811102C08AE0089580E0A1
:1006800008952EE088E190E00FB6F894A895809345
:1006900060000FBE209360008CEF8BB91AB854989D
:1006A0005C98549A5C9A80917A00806880937A0072
:1006B00080917C0080937C0080917A00806480939C
:1006C0007A0010BA11BA109207011092080117B8F7
:1006D0008FEF88B9109204018093050111B882B997
:1006E000569A579A5E985F980E94A601789455ECA6
:1006F000F52E03E010E0A8950E94BF00A5E0B2E04F
:1007000020E080917B00877F80937B00822F806434
:1007100080937C0087EC90E00197F1F700C0000027
:10072000F0927A0080917A0084FFFCCF809178006B
:1007300090917900D92F90E0C92FAE01482BCA01C2
:1007400095958795959587958D93E22FE695E695F6
:10075000F0E0822F837090E0880F991F502F01C026
:10076000550F8A95EAF7852FE65FFD4F80959081BA
:10077000892380832F5F253021F686B180930C0278
:100780008091030180930D0280B180930E02B3CF5C
:04079000F894FFCF0B
:040794005AFF007098
:00000001FF
